:020000040800F2
:1000000030230020990100081B3B0008ED32000856
:10001000193B0008F1150008954100080000000098
:1000200000000000000000000000000001010008C6
:10003000371600080000000045010008193C0008C0
:10004000B3010008B3010008B3010008B3010008C0
:10005000B3010008B3010008B3010008B3010008B0
:10006000B3010008B3010008B3010008B3010008A0
:10007000B3010008B3010008F515000801160008D7
:10008000B3010008B301000829130008B3010008F8
:10009000B3010008B3010008B3010008B301000870
:1000A000B3010008B3010008B3010008B301000860
:1000B000B3010008B3010008BD3C0008B30100080B
:1000C000B3010008B3010008B3010008B301000840
:1000D000B301000889410008B3010008B30100081A
:1000E000B3010008B3010008B3010008DFF80CD029
:1000F00000F06CFE00480047054B0008302300204C
:10010000224B19680868B0E8F00F80F30988BFF344
:100110006F8F4FF0000080F311884EF00D0E704786
:100120000000000006480068006880F3088862B696
:1001300061B6BFF34F8FBFF36F8F00DF00BF00BF0B
:1001400008ED00E0EFF30980BFF36F8F0F4B1A68E3
:1001500020E9F00F106008B54FF0500080F31188CF
:10016000BFF34F8FBFF36F8F05F096FC4FF0000089
:1001700080F31188BDE8084019680868B0E8F00FFE
:1001800080F30988BFF36F8F704700BF3C000020E9
:10019000EFF3058070470000064880470648004797
:1001A000FEE7FEE7FEE7FEE7FEE7FEE7FEE7FEE727
:1001B000FEE7FEE7BB3C0008ED000008202A04DB58
:1001C000203A21FA02F00021704721FA02F3D040D0
:1001D000C2F12002914008431946704740EA0103EA
:1001E0009B0703D009E008C9121F08C0042AFAD2ED
:1001F00003E011F8013B00F8013B521EF9D27047B1
:10020000D2B201E000F8012B491EFBD27047002258
:10021000F6E710B513460A4604461946FFF7F0FF05
:10022000204610BD0FB400B58DB010A909900B90F9
:1002300000914FF0FF300A9000200C900548069086
:10024000054807906A4609A80F9900F0D9FB0DB040
:100250005DF814FB1D0A00083B0A000800F000428C
:1002600030F000400AD0C10D01F56071C0F31600F6
:1002700042EA0151C208400711437047002001467D
:10028000704730B50B46014600202022012409E0CA
:1002900021FA02F59D4205D303FA02F5491B04FA3F
:1002A00002F52844151EA2F10102F1DC30BD2DE952
:1002B000F05F0546002092469B46884606468146EA
:1002C00040241BE02846414647462246FFF776FF7A
:1002D00053465A46C01A914110D311461846224639
:1002E00000F086FD2D1A67EB01084F4622460120DB
:1002F000002100F07DFD17EB00094E41201EA4F106
:100300000104DFDC484631462A464346BDE8F09FFB
:100310002DE9FF4F1C4681B00021D4E901679146C9
:100320004FF0FF358A468846A1696D1C02988847C0
:10033000216A834688470028F6D1BBF1FF3F0CD0E5
:1003400026F4C066002F1ADD700615D5BBF12B0F01
:100350000AD0BBF12D0F0FD104E04FF0FF3005B0F4
:10036000BDE8F08F46F48066A1696D1C029888474D
:100370007F1E8346002F02DDBBF1300F03D0B9F1A1
:10038000000F2AD025E0A1696D1C46F400767F1E7F
:10039000029888478346002F05DDBBF1780F06D011
:1003A000BBF1580F03D0B9F1000F10D011E0B9F133
:1003B000000F02D0B9F1100F0BD1A1696D1C26F40A
:1003C00000767F1E029888478346102000E00820B0
:1003D00081464FEAE970009017E00A20F8E74346AB
:1003E000AAFB092803FB0980DDF800C07F1E0AFB79
:1003F0000C0112EB0B0A41EBEB78A16946F4007695
:1004000005F10105029888478346002F06DD49461D
:10041000584600F013FD5FEA000BE0D5E169029851
:100420008847B00502D46FF0010098E7F00718D1B3
:10043000700610D57005514605D50023D1EB030198
:1004400063EB080200E042462068031D2360006859
:10045000C0E9001205E02068011D21600068C0E9C4
:1004600000A828467BE72DE9FF5F1D464FF0FF3BC4
:10047000D5E9014691465F464FF00008A9697F1C07
:1004800001988847296A824688470028F6D1BAF140
:10049000FF3F0CD024F4C064002E19DD600614D593
:1004A000BAF12B0F09D0BAF12D0F0ED103E0584647
:1004B00004B0BDE8F09F44F48064A9697F1C0198F2
:1004C0008847761E8246002E02DDBAF1300F03D037
:1004D000B9F1000F26D032E0A969761E44F4007409
:1004E0007F1C019888478246002E05DDBAF1780FFF
:1004F00006D0BAF1580F03D0B9F1000F10D01EE0AA
:10050000B9F1000F02D0B9F1100F18D1A969761E08
:1005100024F400747F1C019888478246102002E072
:10052000082000E00A20814609E008FB0908A969C3
:10053000761E44F400747F1C019888478246002E82
:1005400005DD4946504600F079FC0028EDDAE969FE
:1005500001988847A00502D46FF00100A8E7E007E2
:1005600025D1600613D5600502D5C8F1000000E072
:10057000404629680A1D2A600968220501D50870CD
:1005800015E0220701D5088011E008600FE0286817
:10059000011D29600068210502D580F8008006E071
:1005A000210702D5A0F8008001E0C0F8008038469D
:1005B0007EE72DE9FF5FD2E901A74FF000089169BE
:1005C00099461446DDF838B04646019888470546F6
:1005D00059EA0B0005D009E0A169761C019888470B
:1005E0000546216A284688470028F5D1681C03D0B3
:1005F0005FEACA7005D015E04FF0FF3004B0BDE8E7
:10060000F09F2068011D2160D0F800800AE05FEAB9
:10061000CA7001D108F8015BA169761C7F1E0198A0
:1006200088470546002F1ADD681C18D0B9F1000F65
:100630000DD0E81705EBD060421120F01F0059F8EB
:1006400022102A1A012090400142E0D107E0BBF1BC
:10065000000FDCD1216A284688470028D7D0E169FD
:1006600001988847BBF1000F07D1002E05DD5FEA36
:10067000CA7002D1002188F80010A068B84203DDDA
:10068000BBF1000F03D017B16FF00100B6E73046A1
:10069000B4E700002DE9FF4F087883B09946FF28A2
:1006A00005D0491C2D2804D00024002008E000209B
:1006B0000BE00124F9E700EB800003EB4000491C4C
:1006C0000B78FF2BF7D104B140420023029314783A
:1006D00019461D462D2C01D02B2C04D1521C2D2C3B
:1006E00013D000240294AA461478FF2C0FD00A25B8
:1006F000A3FB057801FB05814FF0000C03FB0C11F7
:10070000521CE3194AEB0101EEE70124EAE78144B8
:1007100053EA010002D019F5C87F06DA03980021D8
:10072000C0E9001107B0BDE8F08F0025AE4E2F469E
:10073000DFF8B882184600F082FDCDE90001B9F17A
:10074000000002DAC9F1000400E004460023A74AD1
:100750001AEB030B42EB045A12E0E00707D02A46DB
:1007600033463846414600F020FA074688462A4676
:1007700033461046194600F018FA05460E46641036
:10078000002CEAD1DDE90001B9F1000F5A465346C9
:1007900006DA00F07CFA3A46434600F078FA05E0C3
:1007A00000F003FA3A46434600F0FFF9029A0AB114
:1007B00081F00041039AC2E90001B3E72DE9FF4F40
:1007C0001F468DB0D7E901464FF0FF382E20454631
:1007D0004FF000090B90B9696D1C0E988847396A73
:1007E000824688470028F6D1BAF1FF3F0AD024F4A8
:1007F000D064002E11DDBAF12B0F08D0BAF12D0F05
:100800000BD102E0404611B08DE744F48064B96931
:100810006D1C0E9888478246761E6946600501D594
:100820002D2000E02B208DF8000001F1010B0DF1CF
:10083000200809E0B9696D1C0E98884782460F9818
:1008400044F40074761E0560002E02DDBAF1300F0C
:10085000F0D00B998A453ED144F0800406E00F9910
:10086000681CA9F1010944F400740860B9696D1CA1
:10087000761E0E98884782463028F0D02BE00B99E0
:100880008A4505D1200603D444F08004761E18E082
:10089000504603F087FD08B30DF11301761E44F4B2
:1008A00000748B4508D2AAF130000BF8010B20062A
:1008B00007D5A9F1010003E0200602D409F10100E7
:1008C0008146A00502D50F99681C0860B9696D1CA6
:1008D0000E9888478246002ED1DC53E0002E51DD71
:1008E000BAF1650F02D0BAF1450F4BD1A00549D539
:1008F000B9696D1C24F44074761E0E9888478246B0
:10090000002E0CDD2B2804D0BAF12D0F07D144F4B2
:100910008074B9696D1C0E9888478246761EE00582
:1009200001D52D2100E02B2108F8011BCDF82C80EA
:1009300021E00DF12901761E44F4007488450CD2A3
:10094000AAF1300010F0FF0088F8000002D10B99E6
:10095000884509D908F1010806E0E00501D52448D9
:1009600001E042F20F708146B9696D1C0E9888470C
:1009700082460F980560002E04DD504603F012FDFC
:100980000028D6D1F9690E988847FF208BF800001F
:1009900088F800000020069007904B466A4608A998
:1009A00006A8FFF777FEA00502D46FF001002AE742
:1009B00014F0240F0AD0E00714D1DDE906123868DC
:1009C000031D3B600068C0E900120BE0DDE9060191
:1009D00000F041FC0146E00704D13868021D3A608E
:1009E0000068016028460EE7000014400000F03F58
:1009F000F1D8FFFF02681144137801601846704770
:100A0000D16004495161044911620021116111460C
:100A100000F022BAF5090008330E0008426842B11E
:100A2000016811F8013B23B1521EC0E900121846BB
:100A300070470121C160881E704742685AB1C3687F
:100A4000016843B983688B4205D0491E521CC0E936
:100A50000012002070474FF0FF3070472DE9FE4F25
:100A6000804681EA0300C00F0C46009021F000414F
:100A700023F00045B8EB0200A94105D240462146CB
:100A800090461C460B46024623F00040104347D0D8
:100A9000270DC7F30A00C3F30A510290401A0190D0
:100AA00040286BDAC3F3130040F4801B0098924691
:100AB00020B10023D2EB030A63EB0B0B01985946DC
:100AC000C0F14002504600F093F906460D465046EC
:100AD0005946019A00F09BF910EB0800614100248F
:100AE00087EA115284EAE7731A4340D0009A62B34E
:100AF000019A012A4FEA075215DC001B61EB020143
:100B00004FF0004202EA0752CDE90042001C41F5D5
:100B1000801132462B4600F044FB03B0BDE8F08F55
:100B200040462146F9E7001B61EB0201001C41F53C
:100B3000801300185B412018A2F5001747EB030152
:100B400040EAD570B6196D4111E06D084FEA3606DE
:100B500045EAC0754FEA0752001B61EB0201001C19
:100B600041F5801149084FEA3000001951413246E1
:100B70002B4603B0BDE8F04F00F004BB0098012203
:100B800040000023D0EB020263EBE07300982146A3
:100B90004FEAE074B8EB000061EB0401E9E783F091
:100BA00000435BE781F0004158E72DE9FE4F81EA01
:100BB000030404F0004421F0004100944FF0000BC6
:100BC00023F0004350EA01045ED052EA03045BD0F4
:100BD000C3F30A54C1F30A552C44A4F2F33401942C
:100BE000A0FB0254C1F3130141F48011C3F31303BA
:100BF00043F4801301FB024400FB034E840A970A6E
:100C000044EA815447EA8357A4FB076802958D0A9A
:100C100005FB07854FEA932C04FB0C542705029D26
:100C20004FEA065847EA1637B5EB08056EEB070C96
:100C3000870E920E47EA811742EA8312A7FB020150
:100C4000B6EB0B0164EB00042B0D43EA0C335E188A
:100C500044EB1C50DA465146E7FB0201C5F313048E
:100C60004FEA0B3343EA14534FEA0432019C43EA40
:100C70000603A4F10C040294009CCDE900B400F03A
:100C800090FA03B0BDE8F08F00200146F9E72DE9A6
:100C9000F04D81EA030404F0004B21F000451446B6
:100CA0004FF0000A23F0004150EA050220D054EA38
:100CB00001021DD0C5F30A570246C5F31303C1F361
:100CC0001300C1F30A5640F4801543F48013A7EBD8
:100CD0000608101BD64608F2FD3873EB050002D358
:100CE00008F1010801E092185B41B8F1000F03DA46
:100CF00000200146BDE8F08D00204FF4801106462B
:100D000084460EE0171B73EB050705D3121B63EB3C
:100D1000050306434CEA010C49084FEA30009218DB
:100D20005B4150EA0107EDD152EA030012D082EA9A
:100D3000040083EA0501084305D0101BAB4106D22D
:100D40000122002306E000224FF0004302E06FF092
:100D5000010253101AEB06004CEB085110EB0A008D
:100D600041EB0B01BDE8F04D00F00CBAC1F30A52A3
:100D7000C1F3130140F2FF3341F480119A4202DAC9
:100D800000200146704740F233439A42A2F23342B8
:100D900002DC5242FFF712BA00F02AB830B5041E46
:100DA00071F1000404DB4FF00044404264EB0101A8
:100DB000141E73F1000405DB1C464FF00043524241
:100DC00063EB0403994208BF904230BD064C074DC7
:100DD00006E0E06840F0010394E80700984710340B
:100DE000AC42F6D3FFF786F9947F0008B47F000881
:100DF000202A04DB203A00FA02F1002070479140DB
:100E0000C2F1200320FA03F3194390407047202ACF
:100E100006DBCB17203A41FA02F043EAE07306E022
:100E200041FA02F3D040C2F1200291400843194632
:100E30007047C0B24FF4F05100F02ABA3A2800D2FD
:100E4000303820F02002412A01D3A2F13700884235
:100E500001D34FF0FF3070472DE9F34F8BB04FF0C7
:100E6000000801F10C000C464FF0010B46460DF155
:100E7000080A01906269012101989047051E2DD052
:100E8000252D2CD0216A8847C0B1626901210198C3
:100E90009047216A88470028F7D1411E626901986E
:100EA000904700E0761CA1690B988847216A884723
:100EB0000028F7D1E1690B988847DBE7A1690B9817
:100EC00088470746A84201D1761CD3E7E1690B9811
:100ED00088477F1C02D1B8F1000F6FD046E1002790
:100EE00062693D463946019890472A2804D16269D3
:100EF0000121019890470125DFF884926269012160
:100F000001989047A0F130010A290AD24F45E5DC4B
:100F100007EB870100EB4107303FDFD445F01005B8
:100F2000ECE7E90601D46FF000476C280AD04C28A2
:100F300014D0682815D06A280DD074281CD07A28BF
:100F40001AD01DE062690121019890476C2802D0F7
:100F500045F0040514E045F002050DE045F02005DC
:100F60000AE06269012101989047682802D045F0A3
:100F7000080505E045F40065626901210198904784
:100F8000C4E9015765283DD019DC58287AD00CDC1B
:100F9000452837D004DC252826D0412831D131E03E
:100FA00046282FD047282CD12CE05B2877D0612809
:100FB00028D063287CD0642823D15AE0D0E06F2861
:100FC00048D008DC66281DD067281BD0692821D0AE
:100FD0006E2816D127E0702845D0732868D0752870
:100FE00047D078280DD14DE0A1690B988847054678
:100FF00025283FF469AFE1690B9888476D1C3FF4E1
:101000006AAFB3E023466A466FF001000B99FFF721
:10101000D5FB9EE045F040006060A80723464FF0F6
:10102000000236D43EE0E8077FF447AF2068011D98
:1010300021600068290501D506701BE7290701D545
:10104000068017E7A90703D5F117C0E9006111E78A
:1010500006600FE745F040006060A80723464FF0A8
:10106000080216D41EE040F60E0125EA0100606079
:1010700016E045F040006060A80723464FF00A02E2
:1010800007D40FE045F040006060A80708D523466C
:1010900010226FF001000B99FFF73AF959E007E0D1
:1010A000234610226FF001000B99FFF7DCF950E0A6
:1010B0004FF000094F464B46632802D05B2806D00C
:1010C00040E0E80601D40120A06001273AE062690F
:1010D0000121019890475E2805D14FF0010962690E
:1010E000494601989047216939B900210A4653467B
:1010F00043F82120491C0829FADBB0B3216969B9FA
:10110000C11700EBD16253110AEB830122F01F02D9
:10111000821A01200B68904003430B606269012131
:10112000019890475D28E8D1B9F1000F09D000205F
:10113000514651F82020D24341F82020401C082875
:10114000F7DB02AB224600976FF001000B99FFF727
:1011500030FA00280CDA401C08D1BBF1000F05D092
:101160004FF0FF300DB0BDE8F08FFFE74046F9E7E4
:10117000E90701D108F1010806444FF0000B79E6B8
:10118000CCCCCC0C10B5141E73F1000408DA401C52
:1011900041F1000192185B411A4301D120F0010096
:1011A00010BD2DE9F04D92469B4611B1B1FA81F286
:1011B00002E0B0FA80F220329046FFF719FE0446B2
:1011C0000F4640EA0A0041EA0B0153465A460843DB
:1011D00013D0114653EA010019D0C8F1400250461D
:1011E000FEF7ECFF05460E46504659464246FFF7CD
:1011F000FFFD084305D0012004E020463946BDE844
:10120000F08D0020054346EAE0762C4337430A98E8
:101210006305E40AA0EB08000022FD0A44EA4754F3
:101220000A3002D500200146E9E70105101969419D
:10123000DDE9084500196941BDE8F04DA2E70EB5AA
:1012400040F2334202920022CDE900221346FFF71A
:10125000A8FF03B000BD01F0004330B421F000410D
:1012600050EA010206D00A0DA2F56072C1F3130123
:10127000002A02DC30BC00207047440F44EAC1045D
:10128000C100E01830BC00EBC25000F015B80000FF
:101290007F2801D9002208E0064A02EB5002C0076D
:1012A000127800D1120902F00F020120904008408C
:1012B00070470000147F00080029A8BF7047401C39
:1012C000490008BF20F00100704710B4B0FA80FC5C
:1012D00000FA0CF050EA010404BF10BC704749B199
:1012E000CCF1200421FA04F411FA0CF118BF012109
:1012F00021430843A3EB0C01CB1D4FEA00614FEAE9
:10130000102042BF002010BC704700EBC3501044B7
:101310000029A4BF10BC7047401C490008BF20F042
:10132000010010BC70470000014800F092BB0000B3
:10133000BC04002070B5044600688168C943C90731
:1013400017D1816821F00101816000F0A3FF0546FB
:101350000AE000BF00F09EFF401B022804D920686D
:101360008068C043C00706D020688068C043C007BB
:10137000F0D0002070BDA06A40F01000A062E06ACA
:1013800040F00100E062012070BD0000F8B50026C9
:101390000446009600688168C943C9072DD081685A
:1013A00041F001018160164816490068B0FBF1F078
:1013B00000E0401E00900028FBD100F06BFF0546C6
:1013C00016E000BF00F066FF401B022810D920681D
:1013D0008068C043C0070BD0A06A40F01000A06234
:1013E000E06A40F00100E06284F824600120F8BD6A
:1013F00020688068C043C007E4D10020F8BD000029
:101400003800002040420F0094B0344C344D2EA6DA
:101410004FF0FF373946206A04F094FE012814D1BA
:10142000288890B1A91C2FA002F0B6FE13A8009046
:1014300012AB11AA3146A81CFEF7F4FE032808D00F
:101440002DA002F0A9FE00202880642004F028FAD4
:10145000E0E711982060009012986060824613982F
:10146000A060FEF7FBFE804689465046FEF7F6FE7A
:1014700082468B460098FEF7F1FE02460B4626A0F8
:10148000CDE90289CDE900AB02F086FEA068FEF747
:10149000E5FE82468B466068FEF7E0FE80468946A0
:1014A0002068FEF7DBFE8DE8000F02460B4625A103
:1014B00004A802F081FE0120009004AB1022462116
:1014C0000A2002F071F9BEE7503A25662C20493A0D
:1014D00025662C20443A256600000000000000200C
:1014E000B8000020526563656976656420446174C4
:1014F000613A2025730D00004572726F723A2049DF
:101500006E76616C69642050494420646174612086
:10151000666F726D61740D00506172736564205066
:1015200049442076616C7565733A2050203D202532
:10153000662C2049203D2025662C2044203D202576
:10154000660D0000503A252E326620493A252E328B
:101550006620443A252E32660000000008B51C4C77
:101560004FF0FF373946E06904F0ECFD01282AD13D
:10157000012518A310221E210A20009502F014F95B
:101580001026009604231E215A20E26802F0CAF8B1
:10159000E06848F69A714843000B206110A31022BE
:1015A00032210A20009502F0FFF80096052332212F
:1015B0005A20226902F0B6F80CA3102232218220B0
:1015C000009502F0F1F8642003F0E2FACAE70000A7
:1015D000000000206164635F76616C75653A00000D
:1015E000566F6C746167653A000000006D5600002C
:1015F000FEE70000014800F035BC0000C0050020F7
:10160000014800F02FBC00007C05002030B590F8A8
:1016100040500124AC40C56B6C6004686360436853
:10162000102B036803D099600068C26030BD9A60D7
:101630000068C16030BD704772B6FEE72DE9FF4F0C
:1016400083B004463E20CDE90040DDF844B00027D9
:101650004FF080093148109A07EB071110F811304C
:101660001278934240D100EB410A10989AF8011089
:101670004078814238D1049804990F3083B204F144
:101680000F0082B2204601F09DFF002600250AEBE4
:10169000060800BFBBF1000F13D021490598088050
:1016A00098F8021029FA05F0014203D02046049967
:1016B00001F04AFE641C0098A4B2201A102826D01B
:1016C0000AE098F8021029FA05F0014201D00598C5
:1016D00000E0069802F0EAF86D1CEDB2082DD9D3AF
:1016E000761CF6B2202ED1D37F1C0198BFB2874260
:1016F000B0D30C484188008807B0491EBDE8F04FC0
:10170000401E8BB282B20021084601F05BBF0498F4
:10171000009C401C80B20490E2E70000A072000828
:10172000280000204C0600202DE9FF4F83B004461E
:101730000720CDE90040DDF844B000274FF08009D4
:1017400007EB870000EB47113048109A10F8113072
:101750001278934240D100EB410A10989AF8011098
:101760004078814238D104980499173083B204F14B
:10177000170082B2204601F025FF002600250AEB63
:10178000060800BFBBF1000F13D02149059808805F
:1017900098F8021029FA05F0014203D02046049976
:1017A00001F0D2FD641C0098A4B2201A182826D09B
:1017B0000AE098F8021029FA05F0014201D00598D4
:1017C00000E0069802F072F86D1CEDB2082DD9D336
:1017D000761CF6B2482ED1D37F1C0198BFB2874247
:1017E000AED30C484188008807B0491EBDE8F04FD1
:1017F000401E8BB282B20021084601F0E3BE04987D
:10180000009C401C80B20490E2E70000DC7A0008F3
:10181000280000204C0600202DE9FF4F83B004462D
:101820000420CDE90040DDF844B000274FF08009E6
:101830003148109A07EB871110F811301278934253
:1018400040D100EB410A10989AF80110407881428B
:1018500038D1049804991F3083B204F11F0082B27A
:10186000204601F0AFFE002600250AEB060800BF67
:10187000BBF1000F13D021490598088098F8021099
:1018800029FA05F0014203D02046049901F05CFDDD
:10189000641C0098A4B2201A202826D00AE098F8E8
:1018A000021029FA05F0014201D0059800E00698DF
:1018B00001F0FCFF6D1CEDB2082DD9D3761CF6B2F9
:1018C000802ED1D37F1C0198BFB28742B0D30C4881
:1018D0004188008807B0491EBDE8F04F401E8BB21A
:1018E00082B20021084601F06DBE0498009C401CA5
:1018F00080B20490E2E70000E27C000828000020AB
:101900004C06002070470000F8B50024009490F8C1
:1019100024202546012A12D0012280F824204A687A
:101920001F23072A0DD20668776B521E02EB820234
:1019300093409F430B6893401F43776319E0022055
:10194000F8BD06680D2A0AD2376BD21F02EB82025D
:1019500093409F430B6893401F43376309E0F76A46
:101960000D3A02EB820293409F430B6893401F4362
:10197000F7620A68072306680A2A0AD3F7680A3A50
:1019800002EB420293409F438B6893401F43F760F2
:1019900008E0376902EB420293409F438B68934013
:1019A0001F4337610A68102A01D0112A20D1124B37
:1019B00002689A4217D193681B0219D4936843F4C2
:1019C000000393600968102912D10C490C4A096878
:1019D000B1FBF2F101EB8101490000E0491E0091E9
:1019E0000029FBD104E0816A41F0200181620124D9
:1019F00080F824502046F8BD002401403800002023
:101A000040420F0008B50E4A0168914216D100F01D
:101A10001DF80C49C86000200090C86900280DD04E
:101A2000694604F0A5FA0098002807D006494FF04F
:101A300080500860BFF34F8FBFF36F8F08BD000069
:101A4000002401400000002004ED00E00068C06CAC
:101A5000704770B50446006806684568A90625D534
:101A6000B10723D5A16AC90603D4A16A41F4007164
:101A7000A1628168C1F34241072910D1217B71B96C
:101A8000416821F020014160A06A20F48070A062CA
:101A9000A06AC00403D4A06A40F00100A0622046FE
:101AA000FFF7B0FF21686FF01200086028062ED5FE
:101AB00070072CD5A06AC00603D4A06A40F4005079
:101AC000A06220688168C1F30231072909D041680A
:101AD000490515D48168C1F34241072910D1217B02
:101AE00071B9416821F080014160A06A20F4805002
:101AF000A062A06AC00503D4A06A40F00100A06201
:101B00002046FFF7FFFE21686FF00C0008606806B2
:101B10000CD5F0070AD0A06A40F48030A0622046BD
:101B200000F094F821686FF00100086070BD0000BB
:101B30002DE9F0414FF0000704003D467ED0A06A39
:101B4000002628B9E66284F82460204600F080F878
:101B50002046FFF7EFFBA16AC90600D420B1A06AB6
:101B600040F01000A06269E0A16A21F4885141F0C0
:101B70000201A1626268E169237B0A4347EA4301EB
:101B80000A43A1684FF48077B94209D0012907D0F0
:101B90005FF0000194F814C0BCF1010F02D00AE01C
:101BA0003946F7E7F3B1A36A43F02003A362E36A7F
:101BB00043F00103E3622368D3F804C02CF4694CBA
:101BC0004CEA010CC3F804C021688B68DFF870C0D0
:101BD00003EA0C0313438B60A168B9420BD00129BF
:101BE00009D00CE0DFF85CC0A3690CEB43330B4376
:101BF00043F40061DFE7218A0D05A5F58015216812
:101C0000CB6A23F470032B43CB62216889680E4BA7
:101C10001940914208D1E662A16A21F0020141F027
:101C20000101A162BDE8F081A06A20F0020040F04D
:101C30001000A062E06A40F00100E0620120F1E7DC
:101C4000FDF7E1FF00E0FFFFFE0E1FFF7047000001
:101C500000B585B0002100910191029103910068C7
:101C60001249884220D11248816941F40071816192
:101C7000816901F400710491816941F0040181617D
:101C80008069694600F0040004900420009003205D
:101C90000190084800F008FA00220521122000F007
:101CA00097FB122000F086FB05B000BD0024014028
:101CB000001002400008014070B5044690F824006E
:101CC00001280DD0012084F824002046FFF75EFB98
:101CD00002004FF0000005D084F82400104670BDCB
:101CE000022070BDA16A40F60163994341F48071FE
:101CF000A162224D23682249AB4218D10E6816F426
:101D0000702F14D0A66A46F48016A6620E68760577
:101D100005D5A66A26F4005646F48056A662A66A41
:101D2000F6040AD5E66A26F00606E66206E0A66A2A
:101D300026F48016A6625E68E9E7E06284F8240073
:101D40006FF0020018602068436843F0200343608E
:101D500020688368C3F34243072B05D1A84208D10A
:101D6000096811F4702F04D0816841F480118160FA
:101D7000B4E7816841F4A001F9E7000000280140C0
:101D80000424014010B590F821100022022905D04A
:101D90000421816380F82020012010BD01680B68B8
:101DA00023F00E030B6001680B6823F001030B6046
:101DB00090F84030C46B012101FA03F3636080F8AE
:101DC000211080F82020104610BD000010B590F8BA
:101DD00021100024022903D00421816301243DE065
:101DE00001680A6822F00E020A6001680A6822F09F
:101DF00001020A601A4A0168914201D1012121E0E1
:101E0000174A1432914201D110211BE0144A2832A2
:101E1000914201D1891515E0114A3C32914201D11C
:101E200089140FE00E4A5032914202D14FF48031B2
:101E300008E00B4A6432914202D14FF4801101E074
:101E40004FF08071064A083A5160012180F8211054
:101E5000002180F82010416B01B18847204610BD59
:101E6000080002402DE9F05FC16B0C6801680B6847
:101E7000D0F840C0042202FA0CF2494DDFF824A148
:101E8000494E4A4FDFF828B1DFF828E122422CD032
:101E90005A072AD50A68920603D40A6822F0040277
:101EA0000A600168A94201D1042219E0514501D11B
:101EB000402215E0B14202D14FF4806210E0B942F5
:101EC00002D14FF480420BE0594502D14FF48022F9
:101ED00006E0714502D14FF4800201E04FF08062CC
:101EE0002F4908394A60C16A3BE04FF0020808FAFE
:101EF0000CF818EA040F4FF000094FF0010235D03A
:101F00005FEA837832D50B689B0605D40B6823F013
:101F10000A030B6080F821200168A94201D1022246
:101F200019E0514501D1202215E0B14202D14FF410
:101F3000007210E0B94202D14FF400520BE0594553
:101F400002D14FF4003206E0714502D14FF4001285
:101F500001E04FF00072124908394A6080F8209081
:101F6000816A00291AD0BDE8F05F0847082505FA04
:101F70000CF5254212D01B0710D50B6823F00E0379
:101F80000B6090F84010C36B02FA01F15960826354
:101F900080F8212080F82090016BE2E7BDE8F09FF7
:101FA000080002401C000240300002404400024091
:101FB000580002406C00024030B528B308C81349ED
:101FC00014221944B1FBF2F18900C1631049816305
:101FD000022141771A6843F6F0718A43D0E9001470
:101FE0002143D0E902452C4321430469214344693C
:101FF0002143846921431143196000214163012277
:1020000042770177084630BD012030BDF8FFFDBFA3
:102010000000024070B5044690F820000025012819
:102020000CD0012084F8200094F821600020012EBB
:1020300006D084F820000225284670BD022070BD1D
:10204000022684F82160A0632068066826F0010655
:1020500006602046FFF7DAFAE06A00282068016887
:1020600002D041F00E0106E021F004010160206879
:10207000016841F00A0101602068016841F0010136
:102080000160D9E770B5044600F004F90546601C0C
:1020900002D004480078044400F0FCF8401BA04241
:1020A000FAD370BD2C0000202DE9F84FDFF8B8916D
:1020B0000024A9F1040B23460F2709F1040AABF110
:1020C000040EC9E00125A5402A40AA427DD1674EF1
:1020D000D1F804C0ACEB0608B44532D014DCBCF136
:1020E000030F3AD009DCBCF1000F2AD0BCF1010F7C
:1020F0001CD0BCF1020F31D11DE0BCF1110F17D083
:10210000BCF1120F2AD119E0B8F5881F19D006DCEE
:10211000B8F5803F15D0B8F5801F1FD111E0B8F594
:10212000001F0ED0B8F5041F18D10AE0CB6815E0E7
:10213000CB681B1D12E0CB6808330FE0CB680C3373
:102140000CE08B682BB1012B4FF0080303D04561E5
:1021500004E0042302E0056100E00023FF2A01D827
:10216000064601E000F104064FEA840501D9A5F115
:102170002005D6F8008007FA05FC28EA0C0803FAC7
:1021800005F548EA0508C6F800804D68ED0062D5FF
:10219000374DAE6946F00106AE61AD6924F0030625
:1021A00005F001050095334D06EB050CDCF80850F1
:1021B000A607360F07FA06F825EA0805DFF8B88003
:1021C000404503D14FF0000817E044E0DFF8AC8051
:1021D000404502D14FF001080FE0DFF8A4804045F0
:1021E00002D14FF0020808E0DFF89880404502D1A4
:1021F0004FF0030801E04FF0040808FA06F848EA37
:102200000508CCF808804D68D9F80060ED024D460D
:1022100001D5164300E096432E604D68DAF8006061
:10222000AD02554601D5164300E096432E604D6839
:10223000DBF80060AD035D4601D5164300E0964330
:102240002E604D68DEF80060ED03754601D516433B
:1022500000E096432E60641C0D682A46E5407FF43A
:1022600031AFBDE8F88F00000804014000001110F4
:10227000001002400000014000080140000C014035
:1022800000100140001401400AB1016170470904C7
:10229000FBE7000001488068704700002C00002028
:1022A0000248816802781144816070472C00002048
:1022B000074810B5016841F010010160032000F0EB
:1022C000A7F8002000F006F800F050F8002010BD3C
:1022D0000020024030B505461F4887B0C16941F073
:1022E0000401C161C06906A900F00400009001A8C2
:1022F00000F0ACF90498B0B100F0C8F940001749FB
:10230000174AB0FBF1F11748491E0260416040F2E4
:10231000E7320021C0E903218160816100F0C2FB46
:10232000040003D015E000F0B1F9E8E70D4800F033
:10233000FBFB04000DD11E2000F03CF8102D07D24D
:10234000002229461E2000F043F80748056000E0FF
:10235000012407B0204630BD0010024040420F006B
:102360000008004004060020300000200F4808B597
:10237000816941F001018161816901F001010091F0
:10238000C16941F08051C161C069002200F08050F4
:1023900000900F21901E00F01BF80548416821F0C5
:1023A000E06141F00071416008BD00000010024092
:1023B00000000140002809DB00F01F0201219140CC
:1023C0004009800000F1E020C0F8001170470000D3
:1023D000F0B40E4B1B680C46C3F30223C3F1070590
:1023E000042D00D90425191D072901D2002300E07E
:1023F000DB1E012606FA05F1491E214099409E4048
:10240000761E16403143F0BC01F0EABE0CED00E050
:10241000064900F0070208684FF6FF03184040EA3B
:102420000220034A10430860704700000CED00E0F2
:102430000000FA052DE9F84305460078354CC00741
:1024400054D0E0690026C00008D4E06940F0805014
:10245000E061E069012600F0805000902E4801689C
:10246000C90512D40168804641F480710160FFF70C
:1024700011FF074605E000BFFFF70CFFC01B6428F3
:1024800023D8D8F80000C005F6D5206A10F44070B3
:1024900021D0A98801F4407181421CD0206A1F49D3
:1024A000012220F440700A6000220A602062C00706
:1024B00011D0FFF7EFFE074641F2883808E000BF71
:1024C000FFF7E8FEC11B414502D90320BDE8F883B0
:1024D000206A8007F4D5206A696820F440700843B8
:1024E00020621EB1E06920F08050E061287880070A
:1024F00005D56068A96820F44040084360602878EA
:10250000C00605D56068E96820F480000843606073
:102510000020DBE70010024000700040400442420F
:102520002DE9F0470F46050061D0434E306800F0BA
:102530000700B84209D2306820F007003843306005
:10254000306800F00700B84251D128683B4C810741
:1025500012D5400703D5606840F4E06060602878D9
:10256000000703D5606840F4605060606068A96847
:1025700020F0F000084360602878C00728D0686821
:10258000012810D02168022810D0890700292EDAEE
:10259000616821F0030101436160FFF77BFE804623
:1025A00041F288390DE021688903EFE78901EDE701
:1025B000FFF770FEA0EB0801494502D90320BDE8F2
:1025C000F0876068696800F00C00B0EB810FEFD114
:1025D000306800F00700B8420BD9306820F00700DF
:1025E00038433060306800F00700B84201D0012065
:1025F000E5E72878400705D56068E96820F4E060E1
:10260000084360602878000706D56068296920F4CF
:10261000605040EAC100606000F058F86168084A04
:10262000C1F30311515CC8400649086006480068C0
:10263000FFF750FE0020C2E70020024000100240D9
:10264000FC7E000838000020300000200F220260CD
:102650000C4A536803F003034360536803F0F0032C
:102660008360536803F4E063C36052684FF4E0632F
:1026700003EAD20202610448006800F00700086023
:102680007047000000100240002002400448054945
:1026900000684968044AC1F30221515CC840704790
:1026A00038000020001002400C7F00080448054953
:1026B00000684968044AC1F3C221515CC8407047B0
:1026C00038000020001002400C7F00080E4A5168BC
:1026D0000E4801F00C03042B11D0082B0FD10C482D
:1026E000C1F38343C903C05C0AD55168084AC1F3EA
:1026F0004041921E515C054A5043B0FBF1F07047D7
:1027000004494843704700000010024000127A005C
:10271000EC7E000800093D002DE9F84F040070D060
:102720002078C04DC00749D06868C0F381000128F7
:1027300007D06868C0F38100022809D16868C00327
:1027400006D52868800339D560680028E7D035E0D1
:102750006068B0F5803F0BD010B1B0F5A02F11D05C
:10276000286820F480302860286820F4802002E067
:10277000286840F480302860606890B1FFF78AFDD7
:1027800006460AE0286840F480202860F0E700BF91
:10279000FFF780FD801B642873D828688003F7D575
:1027A0000CE0FFF777FD064605E000BFFFF772FD7E
:1027B000801B6428F0D828688003F7D420789A4ECC
:1027C00080074FF001094FF0000839D5686810F014
:1027D0000C0F07D06868C0F38100022809D168682F
:1027E000C00306D42868800714D52069012808D1C1
:1027F00010E02069B0B1C6F80090FFF74BFD074626
:1028000005E00AE1FFF746FDC01B0228C4D828688E
:102810008007F7D52868616920F0F80040EAC10018
:1028200028600DE0C6F80080FFF734FD074604E09D
:10283000FFF730FDC01B022823D828688007F7D493
:10284000207800072CD57948A169D9B1C0F800904B
:10285000FFF720FD074604E0FFF71CFDC01B022820
:102860000FD8686A8007F7D571484FF4FA510068AD
:10287000B0FBF1F0009000BF0098411E0091FAD229
:102880000EE080E0C0F80080FFF704FD074604E09A
:10289000FFF700FDC01B022875D8686A8007F7D4CF
:1028A0002078400760D5E8690027C00008D4E869AF
:1028B00040F08050E861E869012700F08050009006
:1028C0005C480168C90513D40168834641F48071EE
:1028D0000160FFF7DFFC824606E000BFFFF7DAFC8D
:1028E000A0EB0A0064284ED8DBF80000C005F5D53F
:1028F000E06801280AD008B1052813D0286A20F022
:1029000001002862286A20F0040002E0286A40F0F2
:1029100001002862E06841F2883B98B1FFF7BAFCF9
:1029200082460BE0286A40F004002862EEE700BF10
:10293000FFF7B0FCA0EB0A0159455AD8286A800776
:10294000F6D50CE0FFF7A6FC824605E0FFF7A2FCF7
:10295000A0EB0A0159454CD8286A8007F6D41FB16C
:10296000E86920F08050E861E06988B36968C1F3E4
:102970008101022944D00228C6F8608004D0FFF704
:1029800089FC044638E034E0FFF784FC074604E0A5
:10299000FFF780FCC01B02282BD828688001F7D4E1
:1029A000206AB0F5803F05D16868A16820F4003046
:1029B00008436860D4E908010843696821F4741188
:1029C00008436860C6F86090FFF764FC044606E0C0
:1029D00025E000BFFFF75EFC001B022809D828682D
:1029E0008001F7D51BE000BFFFF754FC001B022855
:1029F00002D90320BDE8F88F28688001F4D40EE0E6
:102A00000128F7D06868226A00F48031914204D12D
:102A1000616A00F47010884201D00120EAE70020CA
:102A2000E8E70000001002400000424280044242F9
:102A300038000020007000407047704770B590F873
:102A40003C20012A26D0012480F83C40022280F854
:102A50003D2003685A689D6822F070060A68324378
:102A60005A600D4B02689A4208D0B2F1804F05D0EF
:102A70000A4B9A4202D00A4B9A4204D1496825F087
:102A800080031943916080F83D40002180F83C109C
:102A9000084670BD022070BD002C014000040040BB
:102AA0000008004010B5040003D094F83D0010B1B8
:102AB00007E0012010BD002084F83C00204600F013
:102AC0001FF8022084F83D00211D206801F0FCF869
:102AD000012084F8460084F83E0084F83F0084F822
:102AE000400084F8410084F8420084F8430084F8F0
:102AF000440084F8450084F83D00002010BD00002B
:102B000008B500680649884208D10648C16941F005
:102B10000201C161C06900F00200009008BD000020
:102B2000000400400010024090F83D10012901D03F
:102B300001207047022180F83D100168CA6842F008
:102B40000102CA6000680B49884208D0B0F1804F8A
:102B500005D00949884202D00849884204D18168D9
:102B600001F00701062903D0016841F0010101606D
:102B700000207047002C0140000400400008004085
:102B800070B5044690F83C000025012817D00126B6
:102B900084F83C60022084F83D002068826822F0BE
:102BA000770222F47F4282600868502838D00DDC1A
:102BB00020284FD005DC90B3102811D14AE0022024
:102BC00070BD302846D040280AD13BE060282FD085
:102BD00070280DD0B0F5805F03D0B0F5005F12D043
:102BE000012584F83D60002084F83C00284670BD33
:102BF000CB68D1E90121206801F09CF82068816848
:102C000041F0770109E0CB68D1E90121206801F0AA
:102C100091F82068816841F480418160E1E719E022
:102C2000CA684968206801F097F85021206806E0DA
:102C3000CA684968206801F0A0F86021206801F0A6
:102C400083F8CEE7CA684968206801F085F840211A
:102C50002068F4E7226801461046F0E7704770B537
:102C60000446006801694FF00005C943890715D47F
:102C7000C168C943890711D4E91E01610120207789
:102C8000206880698007204602D0FFF7E7FF04E054
:102C900000F098F8204600F096F825772068016942
:102CA000C943490717D4C168C943490713D46FF012
:102CB00004010161022020772068806910F4407FC0
:102CC000204602D0FFF7CAFF04E000F07BF8204660
:102CD00000F079F8257720680169C943090716D4FF
:102CE000C168C943090712D46FF0080101610420CB
:102CF00020772068C0698007204602D0FFF7AEFF2A
:102D000004E000F05FF8204600F05DF825772068C9
:102D10000169C943C90617D4C168C943C90613D498
:102D20006FF010010161082020772068C06910F45D
:102D3000407F204602D0FFF791FF04E000F042F808
:102D4000204600F040F8257720680169C943C9078B
:102D500008D1C168C943C90704D1891E0161204651
:102D600000F032F820680169C943090609D4C16836
:102D7000C943090605D46FF0800101612046FFF7C1
:102D80005BFE20680169C943490609D4C168C9438B
:102D9000490605D46FF040010161204600F01EF89D
:102DA00020680169C94389060BD4C168C9438906F3
:102DB00007D46FF0200101612046BDE87040FFF7A5
:102DC0003CBE70BD7047704700680349884201D11E
:102DD000FFF766BA7047000000080040704738B53A
:102DE000044690F84200202801D0022038BD61B18D
:102DF0005AB10120206300206063204601F040F9B1
:102E00000028F3D1216B012901D0012038BD2168B0
:102E10000A684968009121680C3151E8002F42F09E
:102E2000100241E80023002BF5D138BDF8B50D465E
:102E30001649884228D10021009180F84010144C96
:102E40004FF4007631462580A01CFDF7E0F92A46B4
:102E500004F202210D46A01CFDF7C0F932462946B6
:102E60000A48FFF7BCFF0B48006A00280CD06946EF
:102E700003F07EF80098002806D00749F0040860A7
:102E8000BFF34F8FBFF36F8FF8BD000034050020F4
:102E9000B80000200000002004ED00E070470000B2
:102EA000F8B5016804460868CA684B6910F00F0F4E
:102EB0004FF0000559D003F0010602F49077374334
:102EC00065D0C10705D0D10503D5616C41F0010182
:102ED0006164410705D5D90703D0616C41F0020157
:102EE0006164810705D5D90703D0616C41F0040105
:102EF0006164010707D502F02001314303D0616C02
:102F000041F008016164616C00293AD0800604D563
:102F1000900602D5204600F0F6FF20684069616CFB
:102F2000C0F38010090700D460B3204600F0B6FF5C
:102F300020684069400621D52068143050E8001F01
:102F400021F0400140E80012002AF5D1E06BA8B161
:102F50006D494163E06BFEF739FF002811D0E06B4B
:102F6000416B01B0BDE8F040084783060FD59306DA
:102F70000DD52046BDE8F84000F0C5BF2046FFF75C
:102F80008DFFF8BD2046FFF789FF6564F8BD266B0D
:102F90002023012E7CD1C6067AD5D60678D50868BE
:102FA0004868009048694FF00206400640D5E16B42
:102FB000086840680004000CE8D0A28D8242E5D980
:102FC000E085886920282DD020680C3050E8001F4B
:102FD00021F4807140E80012002AF5D120681430F5
:102FE00050E8001F21F0010140E80012002AF5D14D
:102FF0002068143050E8001F21F0400140E8001222
:10300000002AF5D184F84230256320680C3050E85E
:10301000001F21F0100140E80012002AF5D1E06BFA
:10302000FEF7B0FE6663A08DE18D401A81B22AE002
:10303000A08DE18D401A81B2E08D0028A6D0002934
:10304000A4D022680C3252E8000F20F4907042E8BD
:103050000007002FF5D12068143050E8002F22F02F
:10306000010240E80027002FF5D184F842302563A3
:1030700020680C3050E8002F22F0100240E80023B6
:10308000002BF5D166632046FFF7D0FEF8BDFFE7C1
:1030900005062BD5150629D594F841002128F5D130
:1030A000A068B0F5805F01D12069B0B1206A411CF1
:1030B0002162216800784860E08C401E0004000C0A
:1030C000E084E3D12068C16821F08001C1602068FC
:1030D000C16841F04001C160D8E7206A0088C0F3B0
:1030E00008004860206A801C2062E5E74006CDD5D4
:1030F0005006CBD5CA68204622F04002CA6084F848
:10310000413000F0F2F8C1E79F3D000870B50400BF
:1031100004D094F84100002510B106E0012070BDF4
:1031200084F84050204600F023F8242084F8410021
:103130002068C16821F40051C160204600F044FFBE
:103140002068016921F4904101612068416921F002
:103150002A0141612068C16841F40051C160656481
:10316000202084F8410084F842006563002070BD8F
:10317000F0B585B0002406460094019402940394AF
:1031800000682D49884255D12C48816941F480411D
:103190008161816901F480410491816941F00401F8
:1031A00081618069264D00F0040004904FF40070A6
:1031B0000090022001900320039069462846FEF704
:1031C00073FF2815CDE900040120029069462846C6
:1031D000FEF76AFF1C4D1B488027C5E90004C5E9BE
:1031E00002472C616C61AC612846EC61FEF7E4FE9D
:1031F00008B1FEF721FAF5636E62134D11484435AC
:10320000143801C5102091C50F4845F810494430C5
:103210006C61AC61EC61FEF7CFFE08B1FEF70CFA11
:10322000B5630022052125206E62FFF7D1F8252025
:10323000FFF7C0F805B0F0BD0038014000100240B3
:1032400000080140580002407C050020704770478C
:103250002DE9F843044690F841001F4616460D46F6
:10326000202802D00220BDE8F8837DB176B100208D
:103270006064212084F84100FFF70CF8A6848046A2
:10328000E684A068B0F5805F02D003E00120EAE7A1
:10329000206910B12E4600250EE000260CE08021AA
:1032A000204600F035FFA0B9AEB116F8010B216839
:1032B0004860E08C401EE084E08C43464FF0000202
:1032C00000970028EBD14FF04001204600F020FF8E
:1032D00030B10320C7E735F8020BC0F30800E6E77A
:1032E000202084F841000020BDE77047FEE7000081
:1032F0002DE9F041124C804600216088401E83B2C7
:103300002088401E82B2084600F05CF90D4E4FF452
:103310000030306010203060002509E0002703E015
:10332000404600F0C3FA7F1C2088B842F8D86D1CD4
:103330006088A842F2D802203060BDE8F081000029
:103340004C0600201008014010B500F037F9034882
:103350000088BDE8104000F0A9BA00002800002055
:1033600010B500F019F9112000F05CFA7820FEF792
:1033700089FEB12000F056FA012000F045FA2C2019
:1033800000F042FA2D2000F03FFAB22000F04AFA95
:10339000012000F039FA2C2000F036FA2D2000F040
:1033A00033FAB32000F03EFA012000F02DFA2C2071
:1033B00000F02AFA2D2000F027FA012000F024FA6C
:1033C0002C2000F021FA2D2000F01EFAB42000F08D
:1033D00029FA072000F018FAC02000F023FAA220F2
:1033E00000F012FA022000F00FFA842000F00CFA2C
:1033F000C12000F017FAC52000F006FAC22000F044
:1034000011FA0A2000F000FA002000F0FDF9C320B4
:1034100000F008FA8A2000F0F7F92A2000F0F4F909
:10342000C42000F0FFF98A2000F0EEF9EE2000F051
:10343000EBF9C52000F0F6F90E2000F0E5F9362092
:1034400000F0F0F9C02000F0DFF9E02000F0EAF928
:103450000F2000F0D9F91A2000F0D6F90F2000F063
:10346000D3F9182000F0D0F92F2000F0CDF9282052
:1034700000F0CAF9202000F0C7F9222000F0C4F9BA
:103480001F2000F0C1F91B2000F0BEF9232000F03E
:10349000BBF9372000F0B8F9002000F0B5F907209B
:1034A00000F0B2F9022000F0AFF9102000F0ACF902
:1034B000E12000F0B7F90F2000F0A6F91B2000F082
:1034C000A3F90F2000F0A0F9172000F09DF9332098
:1034D00000F09AF92C2000F097F9292000F094F9D7
:1034E0002E2000F091F9302000F08EF9302000F00D
:1034F0008BF9392000F088F93F2000F085F9002091
:1035000000F082F9072000F07FF9032000F07CF939
:10351000102000F079F92A2000F084F9002000F052
:1035200073F9002000F070F9002000F06DF97F20A1
:1035300000F06AF92B2000F075F9002000F064F922
:10354000002000F061F9002000F05EF99F2000F0FB
:103550005BF9F02000F066F9012000F055F9F62043
:1035600000F060F9002000F04FF93A2000F05AF91D
:10357000052000F049F9292000F054F9012000F05D
:103580006FF9044901200860BDE810404FF6FF7054
:10359000FFF7AEBE1008014010B5074C4FF4800095
:1035A00020606420FEF76EFD40202060BDE81040E2
:1035B0003220FEF767BD0000100801400B460246AE
:1035C000AFF300802DE9F041134C074698461546AD
:1035D0000E46A07A00F026F9002000F015F9F8B2A6
:1035E00000F012F9002000F00FF9E8B200F00CF939
:1035F000207B00F017F9002000F006F9F0B200F08F
:1036000003F9002000F000F908F0FF0000F0FCF8DA
:10361000BDE8F04100F014B94C0600202DE9FF4F41
:1036200081B08A460EA9DFF8EC9091E8310020388D
:1036300000F0FF080AEB0400401E83B20198B9F8BD
:1036400000B000EB5400401E82B251460198FFF7D3
:10365000B9FF002D4FF0000549D12F4808EB480174
:1036600000EB810A00F2744000EB081817E00C2C04
:1036700003D018F8057000260CE01AF80570FAE778
:10368000F80701D0039800E0049800F00FF97F08D4
:10369000761CF6B2B6EB540FF2D36D1CEDB2A54218
:1036A000E5D326E00C2C08D01C4901EB08100026BD
:1036B000475D0AEB0500009014E0174808EB48014D
:1036C00000EB8100F3E70398A9F80000F80706D0A3
:1036D000009881B20198304480B2FFF735FE7F0830
:1036E000761CF6B2B6EB540FEDD36D1CEDB2A542CD
:1036F000D8D30B48A9F800B04188008805B0491E0E
:10370000BDE8F04F401E8BB282B200210846FFF7A1
:1037100059BF0000280000203C680008B06C000879
:103720004C0600202DE9FF4F83B00026DDF84080D5
:103730001D463446B2464FEA5807DFF86490DFF87A
:1037400064B028E0281B401EC1B20A2001F018FA1C
:103750000599B1FBF0F00A21B0FBF1F201FB120078
:1037600026B9691E8C4201DA28B101263030C0B278
:103770008DE8010502E020228DE804050398B9F8E0
:10378000003007FB040080B2BBF800200499FFF76B
:1037900045FF641CE4B2AC42D4D307B0BDE8F08F5F
:1037A0002A000020280000202DE9FE4F1C469146EB
:1037B0008A460546114E124FDFF84880DDF830B0DA
:1037C00014E03188491EA94215DB7188491E514514
:1037D00011DB8DE8010A3B88B8F8002051462846E5
:1037E000FFF71CFF05EB590085B2641C2078A0F19F
:1037F00020015E29E5D9BDE8FE8F00004C060020BF
:103800002A0000202800002010B5054C4FF400319C
:1038100021601021216000F081F90220206010BD9C
:103820001008014010B5054C4FF400312160C9006B
:10383000216000F073F90220206010BD10080140E3
:103840000148007AFFF7EEBF4C06002010B50C4689
:10385000FFF7E8FFE0B2BDE81040FFF7D5BF00007A
:1038600011492A224A812B228A812C220A81802214
:10387000A02358B101280DD002280FD0032811D160
:103880000B804A8060213620FFF7E0BF0A804B8022
:10389000C021F8E70B804A80A021F4E70A804B8022
:1038A0000021F0E7704700004C06002070B5084C7E
:1038B00005464FF40030206010202060280A00F0F8
:1038C0002DF9E8B200F02AF90220206070BD000056
:1038D000100801403EB500211148009101910F4AA6
:1038E0000291026081600173017501244FF400228E
:1038F0000461C2614160FEF71BF908B1FDF79CFE4F
:103900000220CDE90004029069460548FDF7FCFF5E
:10391000002801D0FDF790FE3EBD000000240140CC
:10392000BC0400200D4808B5416941F00101416126
:103930004069002200F00100009005210E20FEF7F2
:1039400047FD0E20FEF736FD002205210F20FEF771
:103950003FFDBDE808400F20FEF72CBD00100240DF
:1039600010B50121114A084601F068F9104C0F4AC0
:103970000121E0611032084601F060F90B4A206233
:1039800020320021052001F059F9084A6062483AC6
:103990000021084801F0AAF9044A6061243A002194
:1039A000054801F0A3F9A06110BD00000C680008F3
:1039B000000000205D15000809140008F0B585B06E
:1039C000002428480094019402940394816941F0F2
:1039D00010018161816901F010010491816941F058
:1039E00020018161816901F020010491816941F028
:1039F00004018161816901F004010491816941F050
:103A0000080181618069184E00F008004FF40055EC
:103A10000490002229463046FEF736FC134F002260
:103A2000F3213846FEF730FC0220CDE90240009534
:103A30000125694601953046FEF736FBF320CDE9B6
:103A400000050320CDE9024069463846FEF72CFB0D
:103A50004FF470408DE8310069460548FEF724FBBD
:103A600005B0F0BD00100240001001400008014008
:103A7000000C014010B586B0002418480094019451
:103A800002940394049414490594016040F60F6174
:103A9000C0E9011441F28731C0E903148461FFF7E2
:103AA00001F808B1FDF7C8FD4FF480500090694659
:103AB0000A48FFF765F808B1FDF7BEFD2020CDE903
:103AC000040404A90548FEF7B9FF002801D0FDF75A
:103AD000B3FD06B010BD000000040040EC0400205F
:103AE0000C4810B50A4901604FF4E13141600021F2
:103AF00081600C22C160C0E904128161C161FFF7DD
:103B000005FB002803D0BDE81040FDF795BD10BDB2
:103B10000038014034050020FEE7FEE7F0B508213B
:103B20000D058024084A8E042023070601D5146061
:103B300000E01560166013604006000E491E11F08B
:103B4000FF01F2D1F0BD0000100801402DE9FF4F48
:103B500083B0884610A9044691E86004814628781D
:103B60002C4F9B46002852D03888A0EB5601A1422A
:103B70004DDB79888A1B424549DB2978802915D994
:103B8000801BA04243DB424541DB202E33D0CDE9F0
:103B9000005A059A182E5B464146204634D0FDF760
:103BA0004DFDA01984B215F8020FDBE70D290DD0E9
:103BB000102E12D910228DE806045B46414620469D
:103BC000059AFFF72BFD0834A4B211E008EB0600BC
:103BD0001FFA80F84C466D1C0AE08DE842045B46F3
:103BE00041462046059AFFF719FD04EB560084B2C2
:103BF00015F8010FB6E7CDE9005A5B46414620466D
:103C0000059AFDF709FECCE7FDF78EFDC9E707B081
:103C1000BDE8F08F4C06002010B5502080F31188CD
:103C2000BFF34F8FBFF36F8F02F0EEFB18B1044963
:103C30004FF080500860002080F3118810BD000014
:103C400004ED00E030B593B028216846FCF7DFFAB8
:103C500014210AA8FCF7DBFA002401210F94109428
:103C60000804CDE9001011941294029402250491E5
:103C7000CDE907504FF4E01009906846FEF74CFD7F
:103C800008B172B6FEE70F20CDE90A054FF4806057
:103C9000CDE90C4002210AA80E94FEF741FC08B1C0
:103CA00072B6FEE70FA80F951194FEF7C3FB00282C
:103CB00001D072B6FEE713B030BD70470148FEF781
:103CC000CEBF000004060020F0B50268164B174C6A
:103CD000174D4FF08047984205D0B84203D0A0421C
:103CE00001D0A84203D122F070064A6832439842BC
:103CF00005D0B84203D0A04201D0A84203D122F49B
:103D00004074CA6822434C6922F080022243026058
:103D10008A68C2620A688262984201D109690163B5
:103D200001214161F0BD0000002C01400004004071
:103D30000008004010B5846842EA032224F47F445E
:103D40000A432243826010BD826822F070020A4357
:103D500042F007018160704710B5036A046A24F0DD
:103D600001040462846924F0F00444EA021423F09C
:103D70000A020A438461026210BD10B5036A046A34
:103D800024F010040462846923F0A00324F4704436
:103D900044EA023243EA01118261016210BD10B5AA
:103DA000406A0021C185C184FFF778F810BD70B565
:103DB000446A2068406994F84110C0F3C01000259F
:103DC000212904D118B1E584204600F08EF820683E
:103DD000406994F84210C0F38010222904D118B130
:103DE000E585204600F05AF8606C40F010006064F1
:103DF0002046FFF753F870BD10B50146406A0968C8
:103E000009684FF0000289062ED4C28501680C3182
:103E100051E8003F23F4807341E80034002CF5D1D1
:103E20000168143151E8003F23F0010341E80034F8
:103E3000002CF5D10168143151E8003F23F0400314
:103E400041E80034002CF5D1202180F84210016BAC
:103E5000012909D101680C3151E8003F23F010031A
:103E600041E80034002CF5D14263016B012902D0F6
:103E7000FFF7ECF910BD818DFEF7D8FF10BD10B52E
:103E8000406A01214163016B012902D0FFF7DFF98C
:103E900010BD818D4908FEF7C9FF10BD01680C31C6
:103EA00051E8002F22F4907241E80023002BF5D155
:103EB0000168143151E8002F22F0010241E800238B
:103EC000002BF5D1016B012909D101680C3151E8B2
:103ED000002F22F0100241E80023002BF5D1202111
:103EE00080F8421000210163704701680C3151E8ED
:103EF000002F22F0C00241E80023002BF5D1202141
:103F000080F84110704708B590F84210222901D07E
:103F1000022008BD82684FF480539A4201D10169A2
:103F200021B1816A9A421BD04AB10AE00268816AD3
:103F30005268C2F308020A80816A891C08E002699B
:103F400072B10268526802F07F020A70816A491CED
:103F50008162C18D491E0904090CC18503D01BE093
:103F600002685268F1E70168CA6822F02002CA605C
:103F70000168CA6822F48072CA6001684A6922F046
:103F800001024A61202180F8421000214163026B46
:103F9000012A03D0FFF75AF9002008BD0163016828
:103FA0000C3151E8002F22F0100241E80023002BD1
:103FB000F5D101680A68D20602D50A6849680091FD
:103FC000818DFEF733FFE7E770B5044600680169AD
:103FD000E26821F44051114301612169A06808435E
:103FE000616908432168CA6841F20C639A4302433D
:103FF000CA6020684169A26921F44071114341619E
:104000001E492068884202D1FEF750FB01E0FEF70E
:104010003DFB00EBC00101EB0012606864218000F1
:10402000B2FBF0F3B3FBF1F36FF018067343B2FB8E
:10403000F0F5B2FBF0F605EB8305322303EB051533
:10404000B5FBF1F5B6FBF1F605F0F00505EB06154D
:10405000B2FBF0F6B2FBF0F0B0FBF1F06FF018023B
:10406000504306EB800003EB0010B0FBF1F0216839
:1040700000F00F002844886070BD00000038014047
:1040800038B581620446828500201346606422228E
:1040900084F84220E56B1B4AAA62E56B1A4AEA6281
:1040A000E56B1A4A2A63E26B50630A462168E06BAB
:1040B000091DFDF7AFFF2068016840680090206986
:1040C00048B120680C3050E8001F41F4807140E88E
:1040D0000012002AF5D12068143050E8001F41F08A
:1040E000010140E80012002AF5D12068143050E8A0
:1040F000001F41F0400140E80012002AF5D10020E5
:1041000038BD0000F93D00087F3E0008AF3D0008C3
:104110002DE9F041984617460E460446069D27E0D5
:10412000681C25D02DB1FEF7B5F8A0EB0800A84219
:104130001ED920680C3050E8001F21F4D07140E8EF
:104140000012002AF5D12068143050E8001F21F039
:10415000010140E80012002AF5D1202084F8410036
:1041600084F84200002084F840000320BDE8F0817C
:104170002068006836EA000004D00020B842CFD0A2
:104180000020F3E70120F9E70148FEF789BE0000AF
:1041900034050020FEE700000FB4054B10B503A95D
:1041A000044A029800F006F910BC5DF814FB000008
:1041B000ED4A0008B40000200FB4084B10B504A964
:1041C00002AA039800F0F6F8044602A9002000F0C5
:1041D00088FC204610BC5DF814FB0000E34A000890
:1041E0000907090E002804DB00F1E02080F8001424
:1041F000704700F00F0000F1E02080F8141D7047B8
:1042000002E008C8121F08C1002AFAD1704770479F
:10421000002001E001C1121F002AFBD170470000FD
:104220002DE9FF5F82B00021DDE90430020DDDF8E9
:1042300040B0034318D044F61050A2F2FF3242437C
:104240001514119801281FD0A5EB0B00401C5FEA44
:10425000000A4FF000064E4FDFF83891B046504646
:1042600015D5CAF1000413E0119801244AA30128CE
:1042700001D16FEA0B010298119AC0E90031C0E93F
:10428000024206B0BDE8F09FCBF10000DFE7044634
:104290000021404A491842EB0450CDE9001012E0D9
:1042A000E00707D032463B4640464946FCF77DFCD6
:1042B0008046894632463B4610461946FCF775FC57
:1042C00006460F466410002CEAD1DDE90401DDE961
:1042D0000023BAF1000F06DAFCF767FC42464B46B2
:1042E000FCF763FC05E0FCF7D2FC42464B46FCF7CA
:1042F000CEFC04460E460022284BFCF74FFD03D8A7
:104300004FF0FF30014607E00022254B20463146A2
:10431000FCF7A4FBFCF72AFD102409E0002C0ADBC3
:104320000A220023FBF7C3FF039B30321A55641E99
:1043300050EA0102F2D1641C039AC4F1110314443F
:10434000119A012A03D0012208430DD10AE0084343
:1043500004D000204FF0110B119072E7A3EB0B0576
:104360006D1E0DE05B4504DD4FF0000205F1010517
:1043700004E003DA4FF00002A5F10105002AECD0B9
:1043800002981199C0E90231C0E9004579E70000BF
:10439000000014400000F03F300000000000F04337
:1043A0000000E03F30380A2801D201207047002089
:1043B000704700002DE9FF4F95B09B4689460646A1
:1043C00000250FE2252877D100242746F84A01214D
:1043D000059400E0044316F8013F203B01FA03F086
:1043E0001042F7D130782A2811D06FF02F0330789F
:1043F000A0F13002092A16D8059A44F0020402EB13
:10440000820203EB42021044761C0590EFE759F854
:10441000042B0592002A03DA504244F4005405901C
:1044200044F00204761C30782E2816D116F8010FBD
:1044300044F004042A280DD06FF02F023078A0F148
:104440003003092B09D807EB870302EB4303C71896
:10445000761CF3E759F8047B761C30786C280FD073
:1044600006DC4C2817D068280DD06A2814D104E047
:10447000742810D07A280FD10DE044F400140AE01B
:1044800044F4801401E044F440147278824202D172
:1044900004F58014761C761C307866280BD013DC6B
:1044A000582877D009DC002875D04528F6D0462852
:1044B000F4D047281AD19DE118E0632835D064284C
:1044C00079D0652812D195E1702873D008DC67286F
:1044D000F1D069286FD06E280DD06F2806D1B5E0D5
:1044E00073282CD0752875D0782874D05A4617991F
:1044F00090476D1C75E1C4F30250022809D00328CF
:104500000DD0D9F8001004280DD00D6009F1040970
:1045100067E1D9F80010EA17C1E90052F6E7D9F8C7
:1045200000100D80F2E70D70F0E719F8041B8DF80C
:10453000001000208DF80100EA46012003E059F840
:1045400004AB4FF0FF3061074FF0000102D40DE0E3
:1045500008F101018846B9420FDA8045F8DB1AF804
:1045600008100029F4D108E008F1010188468142D1
:10457000FADB1AF808100029F6D105985B46A0EB83
:10458000080721463846179A00F094FA284400EBB1
:10459000080507E04DE029E10DE01AF8010B5A4645
:1045A00017999047B8F10108F7D25B462146384683
:1045B000179A13E142E00A220092C4F302524FF02C
:1045C000000A022A08D059F804CB032A4FEAEC71FA
:1045D0000AD00DE029E02AE009F1070121F00702E5
:1045E000F2E802C1914609E00FFA8CFC4FEAEC7147
:1045F000042A03D14FFA8CFC4FEAEC71002907DA48
:104600000A460021DCF1000C61EB02012D2202E0E0
:10461000220504D52B228DF80420012203E0E207B5
:1046200001D02022F7E7904659E00A2102E010224B
:104630000DE010214FF0000A00910BE010224FF026
:10464000000A44F004040827009203E008224FF017
:10465000000A0092C4F30252022A05D059F804CB92
:104660000021032A08D009E009F1070121F007021F
:10467000F2E802C1914605E01FFA8CFC042A01D140
:104680000CF0FF0C4FF00008220728D5702806D048
:10469000009B83F0100353EA0A0305D00EE040228A
:1046A0008DF80420012208E05CEA010206D03022E5
:1046B0008DF804208DF8050002229046009B83F0BF
:1046C000080353EA0A030AD15CEA010201D1620736
:1046D00005D530228DF804204FF001087F1E5828A0
:1046E00004D034A003900EA802900DE036A0F9E7A4
:1046F00053466046009AFBF7DAFD84460398825CD5
:104700000298401E029002705CEA0100F0D102980B
:1047100006A9081A00F1200A600702D524F48034A3
:1047200000E00127574502DDA7EB0A0000E000206A
:1047300000EB0A01009005984144401A0590E003FF
:1047400006D45B462146179A059800F0B3F9054454
:10475000002706E001A85A46C05D179990476D1CD6
:104760007F1C4745F6DBE0030CD55B462146179AD4
:10477000059800F09FF9054404E030205A46179947
:1047800090476D1C0099481E00900029F5DC08E058
:10479000029802995A460078491C0291179990474D
:1047A0006D1CBAF10001AAF1010AF1DC65E100001B
:1047B00009280100303132333435363738396162F7
:1047C00063646566000000003031323334353637BB
:1047D00038394142434445460000000000F058F992
:1047E0000544761C307800287FF4ECAD19B02846DB
:1047F000BDE8F08F620700D4062709F1070222F016
:10480000070CFCE80223E14603F000485FEA080CCD
:1048100002D00FF2702C0DE05FEA045C02D50FF2BB
:10482000682C07E05FEAC47C02D00FF2602C01E044
:10483000AFF2700C4FF0FF3823F00043CDF850C0BA
:1048400065280CD006DC452809D046281DD047280D
:104850003DD13DE0662818D067287ED138E00021A0
:10486000112F01DB112000E0781CCDE9000106A921
:104870000EA8FFF7D5FCDDE90F010E9A0391002188
:10488000009207F1010A04914DE04FF000400097BB
:10489000CDE9011006A90EA8FFF7C2FCDDE90F0261
:1048A00003920E9B11990022DDF80CA00093049254
:1048B00011B9791C00EB010AB7EB0A0004D4C0F16E
:1048C000FF3007F1010A0490AAEB0700019044E0D1
:1048D000012F00DA01270021112F01DD112000E056
:1048E0003846CDE9000106A90EA8FFF799FCDDE9DD
:1048F0000F010E9A0391002104910092BA462107FC
:104900000CD40399514500DA8A46BAF1010F05DD4E
:10491000009AAAF10101515C302908D0B84202DAAC
:1049200010F1040F06DA0121CDE9011015E0AAF11A
:104930000101E9E7002805DC049901440491AAEB90
:10494000000102E0411C514500DD8A460499401AED
:10495000401C01904FF000400290200704D40198C1
:10496000504501DBCDF8048000208DF84F000298FF
:104970000DF14F07B0F1004F25D02B200E9002987B
:104980004FF0020800280CDA404202902D200E90D1
:1049900007E00A210298FBF774FC3031029007F817
:1049A000011DB8F10001A8F10108F2DC029800280D
:1049B000EFD1791E0E980870307800F0200040F09A
:1049C000450007F8020D12A8C01B00F10708149853
:1049D000007800B1012000EB0A01019801EBE071C1
:1049E00005984144401A401E0590E00306D45B46FA
:1049F0002146179A059800F05DF805441498007850
:104A000018B15A46179990476D1CE00324D55B46B0
:104A10002146179A059800F04DF805441CE00498CB
:104A2000002807DBDDE90301884203DD0098405CD4
:104A3000179901E0179930205A469047049805F1DC
:104A40000105401C04900198401E019004D12E20C5
:104A50005A46179990476D1CBAF10001AAF1010A54
:104A6000DDDC05E017F8010B5A46179990476D1CDD
:104A7000B8F10001A8F10108F4DC5B462146179A61
:104A80000598ABE62D0000002B0000002000000080
:104A90002DE9F041044600251E461746880404D43B
:104AA00005E039462020B0476D1C641EF9D5284624
:104AB000BDE8F0812DE9F041044600251E469046F0
:104AC000C80301D5302700E02027880404D505E07D
:104AD00041463846B0476D1C641EF9D52846BDE8EE
:104AE000F0810A68531C0B601070704713B54FF4C7
:104AF0007A73012269460248FEF7AAFB00981CBDA2
:104B0000340500200EB5FDF7D3FBFFF79BF8FEF749
:104B100055FFFEF707FFFEF7E3FFFEF7DBFEFEF7AC
:104B2000A9FFFEF71DFC012210210EA08DE8070051
:104B30000A214FF6E0731F220846FFF707F80C48DA
:104B4000FDF7BAF80B48FDF7EFFF4FF400720A4982
:104B50000A48FEF744F900F035F8FEF701FF00F0CF
:104B60004DF8FEE7312E384C434454657374000011
:104B7000BC040020EC040020BA0200203405002010
:104B80000246012000E05043491EC9B2FBD27047E3
:104B900010B5EFF3058149B9EFF3108131B9084938
:104BA0000968022905D1EFF3118111B16FF00504F5
:104BB00003E0002408B100F073FE204610BD0000A1
:104BC0008C000020EFF3058058B9EFF3108040B956
:104BD00009490868022801D030B109E0EFF31180DB
:104BE00030B16FF005007047012008600020704769
:104BF0004FF0FF30704700008C00002010B5EFF33D
:104C0000058060B9EFF3108048B90B4908680228A5
:104C100002D0012806D00BE0EFF3118040B16FF015
:104C2000050010BD0220086000F0EAFE002010BD63
:104C30004FF0FF3010BD00008C000020F8B5144686
:104C400003460E464FF00005EFF30580E8BBEFF397
:104C50001080D0BB24480068022802D1EFF31180F5
:104C600098BB93B39E423DD84CB1A0680028E06841
:104C700003D0502836D3012002E008B132E00020F2
:104C8000012B05D010B31846A26800F0A8FF20E061
:104C900040B103200090002211460120A36800F0DB
:104CA000E2FF04E003220021012000F0B8FF05002C
:104CB00018D086B100231A46194601F04BF8012896
:104CC00009D0284600F09EFD00250BE0184600F0B4
:104CD00069FF050006D00CB1216800E000212846DC
:104CE00000F07CFD2846F8BD8C000020F0B585B0B2
:104CF0004FEA01034FF00004EFF305810394A1BBD9
:104D0000EFF3108189BB21490968022902D1EFF331
:104D1000118151BB48B3802618218DF8104004AD95
:104D200042B3176807B13D4697691FB139467F1EE8
:104D3000382F02D21779FF0702D0002005B0F0BD4E
:104D4000576907B1BE08D2F808C0BCF1000F0DD0FA
:104D5000D4685C2C18D312693AB137B18DE80610CB
:104D60003246294601F011FB03900DE0D7685FB988
:104D700012694AB903AACDE90012B2B2294601F07C
:104D8000D7FA012800D003940398D7E78C000020BD
:104D90002DE9F041134C0F46054666692068001D59
:104DA00000F022FC681C07D137B12168BDE8F04152
:104DB0000D48091D00F068BC20683544B5424560C7
:104DC000216805D2A068BDE8F041091D00F044BC8F
:104DD0006068091D00F040FC206B854200D225630D
:104DE000BDE8F0813C0000204C0B00202DE9F04193
:104DF000054600F055FC2D4C2069401C20612068C0
:104E00002B4F10B1E06930B32BE0256020690128F9
:104E100027D1002606EB860007EB800000F00EFC91
:104E2000761C382EF6D3234800F008FC21481430B5
:104E300000F004FC1F48283000F000FC1D483C3006
:104E400000F0FCFB1B48503000F0F8FB1948606094
:104E50001430A06005E02068E96AC06A884200D882
:104E60002560E06A401CE0626864E86AA1698842E3
:104E700000D9A06100EB800007EB8000291D00F045
:104E800003FC00F02DFCE06900280CD02068E96AE2
:104E9000C06A884207D208494FF080500860BFF3CB
:104EA0004F8FBFF36F8FBDE8F08100003C00002002
:104EB0009C060020FC0A002004ED00E038B500F05C
:104EC000EFFB104CA068C8B90F4800F0B7FB0E48C4
:104ED000143000F0B3FB0C482060143060600A4BC3
:104EE00000202833009003F1500210210A2000F026
:104EF000BAFEA06010B105A100F070FCBDE838401A
:104F000000F0EEBB78000020600B0020546D725161
:104F10000000000030B4026C0B46002A0BD0C168C0
:104F20001144C1604468A14201D30168C16030BC32
:104F30001846FBF753B930BC70472DE9F041856B3B
:104F4000174604460026026C82B1C7B1E068FBF741
:104F500045F9E168206C091AE1602268914202D2A9
:104F60006168081AE060022F16D017E02068A8B91F
:104F7000606801F0ADFA0646002060600EE0A068AF
:104F8000FBF72CF9216CA0680844A0606168884296
:104F900004D32068A06001E005B16D1E6D1CA563FF
:104FA0003046BDE8F08110B5044690F8590058B17C
:104FB00001280CD002280FD0502080F31188BFF3B5
:104FC0004F8FBFF36F8FFEE7206B00F09DFB2046F5
:104FD000BDE8104000F098BB10BD000010484FF431
:104FE0004061420706D0C01D0D4920F00700411A5C
:104FF000C1F540610B4A00230144C2E900030839AE
:10500000103A21F0070111604B600B600B1AC0E9E8
:10501000001393604FF000405360D0607047000071
:1050200030130020A0000020144E154CA6F29C471F
:105030004FF08058DFF84C9012E000BF00F030FBDA
:10504000F068C568281D00F0CFFA2069401E206175
:10505000E068401EE06000F043FB2846FFF7A3FF36
:10506000E0680028EAD138680128F9D9C9F8008039
:10507000BFF34F8FBFF36F8FF2E70000380B0020B4
:105080003C00002004ED00E070B51D46049C51B1C9
:10509000C4F80020C4E90F010121204600F016FEEB
:1050A00084F84C5070BD2460F4E72DE9F0470E46BB
:1050B000DDE909841746824691009946089DA5229C
:1050C000206BFBF79DF86FF00301206B01EB87016C
:1050D000084420F00707780707D0502080F3118894
:1050E000BFF34F8FBFF36F8FFEE72218315C82F85A
:1050F0003410315C11B1401C1028F6D3002684F81E
:105100004360382D00D33725E562C4E91356201DCE
:1051100000F09FFA04F1180000F09BFA2461C5F139
:1051200038006462A061666584F858604A4651465A
:10513000384600F047FA2060B8F1000F01D0C8F8F7
:105140000040BDE8F087000030B5114900E011468D
:105150000A688242FBD34B685C18844203D14068E2
:1051600018444860084643681C18944209D1084C0A
:10517000103C2468A24209D052681A4442600A686E
:1051800012680260814200D0086030BD0460F9E717
:10519000A000002070B5002441600B4D00619142D9
:1051A00006D8D11A8269914206D2011D686807E0CB
:1051B0009A4203D2994201D3012403E0011D2868D9
:1051C00000F04AFA204670BD7800002010B5044671
:1051D00000F066FAA06B28B15FF0000400F080FADE
:1051E000204610BD0124F9E730B589B0304D55E0B7
:1051F0000498002806DADDE90601059A904704982C
:1052000000284BDB069C606910B1201D00F0ECF912
:1052100002A800F0B9F8024604980A283ED2DFE856
:1052200000F00505053D263705053D260598A169D1
:10523000034601442046FFF7ADFF00B3616A2046F4
:105240008847E069012829D1002000900598A169CC
:10525000002342181946204601F080FA78B9502000
:1052600080F31188BFF34F8FBFF36F8FFEE7059870
:10527000A06128B1811813462046FFF78BFF0DE08F
:10528000502080F31188BFF34F8FBFF36F8FFEE77D
:1052900094F82C0010B9204600F036FA002204A938
:1052A000A86800F0B3FE0028A2D109B030BD00000C
:1052B000780000202DE9FC410F46054600F0E4FB94
:1052C00001A800F061F80446019818B101F0B4F9A2
:1052D000BDE8FC81224EAFB170680068A8B300271A
:1052E000291B3A46B06800F0B9FA01F0A5F9002888
:1052F000EED11C494FF080500860BFF34F8FBFF3D1
:105300006F8FE5E7A542EBD801F096F930682746A4
:10531000C068C468201D00F067F9E069012810D159
:10532000A0692B4641193A462046FFF733FF40B1AA
:1053300000200346014600902A46204601F00EFA5E
:1053400020B1616A20468847C2E707E0502080F319
:105350001188BFF34F8FBFF36F8FFEE70127BFE7C1
:105360007800002004ED00E006484168096829B192
:105370004168C968C9684968016370474FF0FF31E7
:10538000FAE700003C00002070B5054601F036F851
:10539000064E04463069844203D200F009F8012029
:1053A00000E0002028602046346170BD78000020B5
:1053B000F8B5194D1FE0C068C4680668201D00F0EC
:1053C00013F9616A20468847E069012813D1A06972
:1053D0003044B04206D924616060211D286800F085
:1053E0003BF908E000200346014600903246204683
:1053F00001F0B4F938B1286801680029DBD1696887
:10540000C5E90010F8BD502080F31188BFF34F8F1D
:10541000BFF36F8FFEE70000780000200848406867
:10542000401C4FF0500080F3118804D0BFF34F8F21
:10543000BFF36F8FFEE7BFF34F8FBFF36F8FFEE7B2
:10544000A8000020074C2068016841B1C068002115
:10545000D0F80000FFF72EFFFFF7C6FEF3E70121AB
:105460000020F7E7780000202DE9F041044600F025
:1054700017F994F9455004F1240609E0606A48B12F
:10548000304601F0A1F808B100F038FA6D1E6DB297
:10549000002DF3DC4FF0FF3684F8456000F020F972
:1054A00000F0FEF894F9445004F1100709E0206977
:1054B00048B1384601F088F808B100F01FFA6D1EB7
:1054C0006DB2002DF3DC84F84460BDE8F04100F0DB
:1054D00007B900002DE9F0410546002700F0D4FA95
:1054E000314E306808B9FFF779FDF06805424BD1BD
:1054F000C5B3083568070ED005F00700C0F10800F5
:105500000544680707D0502080F31188BFF34F8F00
:10551000BFF36F8FFEE72DB37068854234D8224801
:10552000103001460C6801E020460C466168A94233
:1055300002D221680029F7D131688C4224D0076853
:105540002168016060680837411B10290FD9601974
:10555000420708D0502080F31188BFF34F8FBFF36C
:105560006F8FFEE710E041606560FFF7EDFD616859
:105570007068401A7060B268904200D2B060F06803
:1055800001430020C4E9000101F056F8780707D074
:10559000502080F31188BFF34F8FBFF36F8FFEE76A
:1055A0003846BDE8F08100009000002004490868FA
:1055B00018B10868026D521C026508687047000047
:1055C0003C00002010B5031F4FF080741C601B1FAF
:1055D00021F001011960191F024B0B60143940388A
:1055E0000A6010BD1D540008D0E9013201699A60BB
:1055F000D0E901235A604A68824201D182684A6038
:10560000002202610868401E0860086870470000B8
:10561000034B036003F15C0008608020106070475A
:10562000780C0020044B036003F15C0008604FF429
:105630008070106070470000D40E002000F1080157
:105640004FF0FF32C0E90112C16001610021016029
:10565000704700210161704730B50B685A1C02D0B9
:1056600000F1080202E0026904E02246546825685D
:105670009D42FAD953684B6099608A605160086115
:105680000168491C016030BD42684A6093688B60C4
:1056900093685960916008610168491C0160704716
:1056A000502080F31188BFF34F8FBFF36F8F0A49EB
:1056B0004868401C486001280CD10848006810F078
:1056C000FF0F07D0502080F31188BFF34F8FBFF337
:1056D0006F8FFEE770470000A800002004ED00E097
:1056E0000849486828B1401E486001D180F31188FC
:1056F0007047502080F31188BFF34F8FBFF36F8F37
:10570000FEE70000A800002070B5002827D0144D47
:10571000A0F108046168E868014207D1502080F3D5
:105720001188BFF34F8FBFF36F8FFEE722683AB146
:10573000502080F31188BFF34F8FBFF36F8FFEE7C8
:105740008143616000F0A0F960686968084468609E
:105750002046FFF7F9FCBDE8704000F06DBF70BD5A
:10576000900000204FF0E020002101618161054997
:105770004FF47A720968B1FBF2F1491E41610721C9
:10578000016170473800002010B5FAF701FD11499A
:1057900010280ED300F1E02090F8F0030A78904230
:1057A00007D2502080F31188BFF34F8FBFF36F8F64
:1057B000FEE709480068896800F4E060884207D97C
:1057C000502080F31188BFF34F8FBFF36F8FFEE738
:1057D00010BD0000A80000200CED00E010B5084B43
:1057E000002200BF53F832401CB1521C082AF9D3E2
:1057F00010BD43F8321003EBC201486010BD000039
:105800005C06002010B504000AD000F013F894F8EC
:10581000460000280CD12046BDE81040FFF774BFB9
:10582000502080F31188BFF34F8FBFF36F8FFEE7D7
:1058300010BD0000084A002102EBC1035B688342EF
:1058400006D1002042F8310002EBC10148607047E8
:10585000491C0829F0D370475C06002070B5154636
:105860000E460446FFF71CFF94F944100020491C23
:1058700001D184F8440094F94510491C01D184F801
:105880004500FFF72DFFA06B28B92A46314604F1E9
:10589000240000F051F82046BDE87040FFF7E4BD59
:1058A00010B5020014D00F48806B38B1502080F33F
:1058B0001188BFF34F8FBFF36F8FFEE700F0E4F85E
:1058C00000211046FFF764FA00F0B6FE002807D169
:1058D00005494FF080500860BFF34F8FBFF36F8FC3
:1058E00010BD00003C00002004ED00E002498A6A7F
:1058F00002604969416070473C0000200149012075
:10590000486270473C00002010B50C4650B1094970
:1059100009681831FFF7A0FE2046BDE810400121BC
:10592000FFF736BA502080F31188BFF34F8FBFF3D3
:105930006F8FFEE73C00002070B514460D4668B13D
:105940000A4909681831FFF79FFE0CB14FF0FF3587
:1059500021462846BDE87040FFF71ABA502080F370
:105960001188BFF34F8FBFF36F8FFEE73C0000201D
:1059700070B504003ED0226DA2B1E06C884200D325
:105980000146E06A884235D0012A33D11A4D2A688F
:1059900094420FD1502080F31188BFF34F8FBFF393
:1059A0006F8FFEE7502080F31188BFF34F8FBFF356
:1059B0006F8FFEE7E162A269002A02DBC1F13801C4
:1059C000A1610E4E00EB8000616906EB8000814210
:1059D00010D1201DFFF708FEE06AA969884200D9AE
:1059E000A86100EB800006EB8000211DBDE870403F
:1059F000FFF74ABE70BD00003C0000209C0600205E
:105A000030B587B00024039405AA04A903A8049420
:105A1000FFF7FEFDDDE903010094CDE9011000234D
:105A200015A11748059A00F0B0FC164D00286863D0
:105A30001FD000F063FE012809D0401C19D150206E
:105A400080F31188BFF34F8FBFF36F8FFEE75020B5
:105A500080F31188BFF34F8FBFF36F8F4FF0FF308C
:105A600028630120E8616C6107B0BDE8304000F0B8
:105A700045B807B030BD000049444C450000000067
:105A8000295000083C0000200248816B491C8163BA
:105A9000704700003C000020164810B5816B11B122
:105AA0000121416210BD002141628169124A01E079
:105AB000B9B1491E01EB810352F82330002BF7D016
:105AC00001EB810302EB830202F1080453685B6877
:105AD0005360A34201D15B685360DA680260816160
